{
  "contractName": "EventFactory",
  "abi": [
    {
      "constant": true,
      "inputs": [
        {
          "name": "",
          "type": "uint256"
        }
      ],
      "name": "allContracts",
      "outputs": [
        {
          "name": "add",
          "type": "address"
        },
        {
          "name": "timestamp",
          "type": "uint256"
        }
      ],
      "payable": false,
      "stateMutability": "view",
      "type": "function"
    },
    {
      "constant": false,
      "inputs": [
        {
          "name": "_name",
          "type": "string"
        },
        {
          "name": "_marketResolutionTimestamp",
          "type": "uint256"
        },
        {
          "name": "_apiPath",
          "type": "string"
        },
        {
          "name": "_httpPostOrGet",
          "type": "string"
        },
        {
          "name": "_getData",
          "type": "string"
        },
        {
          "name": "_postData",
          "type": "string"
        },
        {
          "name": "_jsonRegexString",
          "type": "string"
        }
      ],
      "name": "createContract",
      "outputs": [],
      "payable": false,
      "stateMutability": "nonpayable",
      "type": "function"
    },
    {
      "constant": true,
      "inputs": [],
      "name": "getAddressCount",
      "outputs": [
        {
          "name": "",
          "type": "uint256"
        }
      ],
      "payable": false,
      "stateMutability": "view",
      "type": "function"
    }
  ],
  "bytecode": "0x608060405234801561001057600080fd5b506134e9806100206000396000f300608060405260043610610057576000357c0100000000000000000000000000000000000000000000000000000000900463ffffffff16806371208f751461005c578063cdbb02af14610085578063e54e26b9146100b0575b600080fd5b34801561006857600080fd5b50610083600480360361007e91908101906104d7565b6100ee565b005b34801561009157600080fd5b5061009a61036d565b6040516100a7919061082b565b60405180910390f35b3480156100bc57600080fd5b506100d760048036036100d29190810190610605565b61037a565b6040516100e59291906107e0565b60405180910390f35b6100f66103cd565b6100fe6103fd565b600060a06040519081016040528089815260200188815260200187815260200186815260200185815250925060026000805490501015610193576000600190806001815401808255809150509060018203906000526020600020016000909192909190915055506000600290806001815401808255809150509060018203906000526020600020016000909192909190915055505b6080604051908101604052808b81526020018a815260200184815260200160008054806020026020016040519081016040528092919081815260200182805480156101fd57602002820191906000526020600020905b8154815260200190600101908083116101e9575b5050505050815250915061020f61042d565b604051809103906000f08015801561022b573d6000803e3d6000fd5b5090508073ffffffffffffffffffffffffffffffffffffffff16633ecf7f7b836040518263ffffffff167c01000000000000000000000000000000000000000000000000000000000281526004016102839190610809565b600060405180830381600087803b15801561029d57600080fd5b505af11580156102b1573d6000803e3d6000fd5b50505050600160408051908101604052808373ffffffffffffffffffffffffffffffffffffffff1681526020018b8152509080600181540180825580915050906001820390600052602060002090600202016000909192909190915060008201518160000160006101000a81548173ffffffffffffffffffffffffffffffffffffffff021916908373ffffffffffffffffffffffffffffffffffffffff1602179055506020820151816001015550505050505050505050505050565b6000600180549050905090565b60018181548110151561038957fe5b90600052602060002090600202016000915090508060000160009054906101000a900473ffffffffffffffffffffffffffffffffffffffff16908060010154905082565b60a06040519081016040528060608152602001606081526020016060815260200160608152602001606081525090565b61010060405190810160405280606081526020016000815260200161042061043d565b8152602001606081525090565b604051612b598061095783390190565b60a06040519081016040528060608152602001606081526020016060815260200160608152602001606081525090565b600082601f830112151561048057600080fd5b813561049361048e82610873565b610846565b915080825260208301602083018583830111156104af57600080fd5b6104ba838284610903565b50505092915050565b60006104cf82356108f9565b905092915050565b600080600080600080600060e0888a0312156104f257600080fd5b600088013567ffffffffffffffff81111561050c57600080fd5b6105188a828b0161046d565b97505060206105298a828b016104c3565b965050604088013567ffffffffffffffff81111561054657600080fd5b6105528a828b0161046d565b955050606088013567ffffffffffffffff81111561056f57600080fd5b61057b8a828b0161046d565b945050608088013567ffffffffffffffff81111561059857600080fd5b6105a48a828b0161046d565b93505060a088013567ffffffffffffffff8111156105c157600080fd5b6105cd8a828b0161046d565b92505060c088013567ffffffffffffffff8111156105ea57600080fd5b6105f68a828b0161046d565b91505092959891949750929550565b60006020828403121561061757600080fd5b6000610625848285016104c3565b91505092915050565b610637816108cf565b82525050565b6000610648826108ac565b80845260208401935061065a8361089f565b60005b8281101561068c576106708683516107d1565b610679826108c2565b915060208601955060018101905061065d565b50849250505092915050565b60006106a3826108b7565b8084526106b7816020860160208601610912565b6106c081610945565b602085010191505092915050565b600060a08301600083015184820360008601526106eb8282610698565b915050602083015184820360208601526107058282610698565b9150506040830151848203604086015261071f8282610698565b915050606083015184820360608601526107398282610698565b915050608083015184820360808601526107538282610698565b9150508091505092915050565b6000608083016000830151848203600086015261077d8282610698565b915050602083015161079260208601826107d1565b50604083015184820360408601526107aa82826106ce565b915050606083015184820360608601526107c4828261063d565b9150508091505092915050565b6107da816108ef565b82525050565b60006040820190506107f5600083018561062e565b61080260208301846107d1565b9392505050565b600060208201905081810360008301526108238184610760565b905092915050565b600060208201905061084060008301846107d1565b92915050565b6000604051905081810181811067ffffffffffffffff8211171561086957600080fd5b8060405250919050565b600067ffffffffffffffff82111561088a57600080fd5b601f19601f8301169050602081019050919050565b6000602082019050919050565b600081519050919050565b600081519050919050565b6000602082019050919050565b600073ffffffffffffffffffffffffffffffffffffffff82169050919050565b6000819050919050565b6000819050919050565b82818337600083830152505050565b60005b83811015610930578082015181840152602081019050610915565b8381111561093f576000848401525b50505050565b6000601f19601f830116905091905056006080604052600160045534801561001557600080fd5b5030600660006101000a81548173ffffffffffffffffffffffffffffffffffffffff021916908373ffffffffffffffffffffffffffffffffffffffff160217905550612af3806100666000396000f3006080604052600436106100a4576000357c0100000000000000000000000000000000000000000000000000000000900463ffffffff1680630bb192fd146100a9578063248269b0146100e657806326b85ee11461010f5780632dd2829b1461013a5780633ecf7f7b146101635780634357855e1461018c57806380f55605146101b55780639d1e2c86146101e2578063f3a95e611461020b578063f6fb923314610234575b600080fd5b3480156100b557600080fd5b506100d060048036036100cb9190810190612461565b610271565b6040516100dd91906128dd565b60405180910390f35b3480156100f257600080fd5b5061010d60048036036101089190810190612340565b610294565b005b34801561011b57600080fd5b50610124610462565b604051610131919061277a565b60405180910390f35b34801561014657600080fd5b50610161600480360361015c91908101906124ed565b610488565b005b34801561016f57600080fd5b5061018a60048036036101859190810190612420565b6104cd565b005b34801561019857600080fd5b506101b360048036036101ae91908101906123e4565b610635565b005b3480156101c157600080fd5b506101ca61075c565b6040516101d993929190612858565b60405180910390f35b3480156101ee57600080fd5b506102096004803603610204919081019061248a565b610b41565b005b34801561021757600080fd5b50610232600480360361022d919081019061248a565b610b47565b005b34801561024057600080fd5b5061025b60048036036102569190810190612461565b6114d8565b60405161026891906128dd565b60405180910390f35b60098181548110151561028057fe5b906000526020600020016000915090505481565b61029c611e1a565b600a60010154421115156102af57600080fd5b6102dd8430634357855e7c0100000000000000000000000000000000000000000000000000000000026114fb565b90506103856040805190810160405280600381526020017f6765740000000000000000000000000000000000000000000000000000000000815250606060405190810160405280603f81526020017f68747470733a2f2f6d696e2d6170692e63727970746f636f6d706172652e636f81526020017f6d2f646174612f70726963653f6673796d3d455448267473796d733d555344008152508361152c9092919063ffffffff16565b6104046040805190810160405280600481526020017f70617468000000000000000000000000000000000000000000000000000000008152506040805190810160405280600381526020017f55534400000000000000000000000000000000000000000000000000000000008152508361152c9092919063ffffffff16565b61044f6040805190810160405280600581526020017f74696d657300000000000000000000000000000000000000000000000000000081525060648361155f9092919063ffffffff16565b61045a858285611592565b505050505050565b600660009054906101000a900473ffffffffffffffffffffffffffffffffffffffff1681565b6000841180156104985750606484105b15156104a357600080fd5b81156104ba576104b584843384610b47565b6104c7565b6104c684843384610b41565b5b50505050565b600081600a60008201518160000190805190602001906104ee929190611e88565b5060208201518160010155604082015181600201600082015181600001908051906020019061051e929190611e88565b50602082015181600101908051906020019061053b929190611e88565b506040820151816002019080519060200190610558929190611e88565b506060820151816003019080519060200190610575929190611e88565b506080820151816004019080519060200190610592929190611e88565b50505060608201518160070190805190602001906105b1929190611f08565b50905050600090505b600a600701805490508110156106315760086000908060018154018082558091505090600182039060005260206000200160009091929091909150555060096064908060018154018082558091505090600182039060005260206000200160009091929091909150555080806001019150506105ba565b5050565b8160056000826000191660001916815260200190815260200160002060009054906101000a900473ffffffffffffffffffffffffffffffffffffffff1673ffffffffffffffffffffffffffffffffffffffff163373ffffffffffffffffffffffffffffffffffffffff161415156106e1576040517f08c379a00000000000000000000000000000000000000000000000000000000081526004016106d8906128bd565b60405180910390fd5b60056000826000191660001916815260200190815260200160002060006101000a81549073ffffffffffffffffffffffffffffffffffffffff021916905580600019167f7cc135e0cebb02c3480ae5d74d377283180a2601f8f644edf7987b009316c63a60405160405180910390a281601281905550505050565b600a806000018054600181600116156101000203166002900480601f0160208091040260200160405190810160405280929190818152602001828054600181600116156101000203166002900480156107f65780601f106107cb576101008083540402835291602001916107f6565b820191906000526020600020905b8154815290600101906020018083116107d957829003601f168201915b5050505050908060010154908060020160a06040519081016040529081600082018054600181600116156101000203166002900480601f0160208091040260200160405190810160405280929190818152602001828054600181600116156101000203166002900480156108ab5780601f10610880576101008083540402835291602001916108ab565b820191906000526020600020905b81548152906001019060200180831161088e57829003601f168201915b50505050508152602001600182018054600181600116156101000203166002900480601f01602080910402602001604051908101604052809291908181526020018280546001816001161561010002031660029004801561094d5780601f106109225761010080835404028352916020019161094d565b820191906000526020600020905b81548152906001019060200180831161093057829003601f168201915b50505050508152602001600282018054600181600116156101000203166002900480601f0160208091040260200160405190810160405280929190818152602001828054600181600116156101000203166002900480156109ef5780601f106109c4576101008083540402835291602001916109ef565b820191906000526020600020905b8154815290600101906020018083116109d257829003601f168201915b50505050508152602001600382018054600181600116156101000203166002900480601f016020809104026020016040519081016040528092919081815260200182805460018160011615610100020316600290048015610a915780601f10610a6657610100808354040283529160200191610a91565b820191906000526020600020905b815481529060010190602001808311610a7457829003601f168201915b50505050508152602001600482018054600181600116156101000203166002900480601f016020809104026020016040519081016040528092919081815260200182805460018160011615610100020316600290048015610b335780601f10610b0857610100808354040283529160200191610b33565b820191906000526020600020905b815481529060010190602001808311610b1657829003601f168201915b505050505081525050905083565b50505050565b610b4f611f55565b6000806000806000806000806080604051908101604052808d81526020018c73ffffffffffffffffffffffffffffffffffffffff16815260200160008152602001600115158152509850600760008b8152602001908152602001600020975060098a815481101515610bbd57fe5b90600052602060002001548d1015610ce557600760008b815260200190815260200160002060008e815260200190815260200160002060000189908060018154018082558091505090600182039060005260206000209060040201600090919290919091506000820151816000015560208201518160010160006101000a81548173ffffffffffffffffffffffffffffffffffffffff021916908373ffffffffffffffffffffffffffffffffffffffff1602179055506040820151816002015560608201518160030160006101000a81548160ff02191690831515021790555050505060088a815481101515610caf57fe5b90600052602060002001548d1115610ce0578c60088b815481101515610cd157fe5b90600052602060002001819055505b6114c9565b8b965060098a815481101515610cf757fe5b906000526020600020015495505b600087118015610d1557508c8611155b156114c85760009450600760008b81526020019081526020016000206000878152602001908152602001600020600201805490509350600760008b815260200190815260200160002060008781526020019081526020016000206003015492508291505b8382108015610d885750600087115b15610f3757600760008b8152602001908152602001600020600087815260200190815260200160002060020182815481101515610dc157fe5b90600052602060002090600402019050806002015481600001540387101515610ecd57806002015481600001540387039650600760008b8152602001908152602001600020600087815260200190815260200160002060030160008154809291906001019190505550600760008b8152602001908152602001600020600087815260200190815260200160002060020182815481101515610e5e57fe5b906000526020600020906004020160000154600760008c8152602001908152602001600020600088815260200190815260200160002060020183815481101515610ea457fe5b906000526020600020906004020160020181905550806002015481600001540385019450610f2a565b86600760008c8152602001908152602001600020600088815260200190815260200160002060020183815481101515610f0257fe5b9060005260206000209060040201600201600082825401925050819055506000965086850194505b8180600101925050610d79565b600087118015610f4657508c86105b15611095576080604051908101604052808681526020018c73ffffffffffffffffffffffffffffffffffffffff168152602001868152602001600115158152509850600760008b8152602001908152602001600020600087815260200190815260200160002060000189908060018154018082558091505090600182039060005260206000209060040201600090919290919091506000820151816000015560208201518160010160006101000a81548173ffffffffffffffffffffffffffffffffffffffff021916908373ffffffffffffffffffffffffffffffffffffffff1602179055506040820151816002015560608201518160030160006101000a81548160ff021916908315150217905550505050600760008b81526020019081526020016000206000878152602001908152602001600020600101600081548092919060010191905055506114bb565b82841415611335576080604051908101604052808681526020018c73ffffffffffffffffffffffffffffffffffffffff168152602001868152602001600115158152509850600760008b8152602001908152602001600020600087815260200190815260200160002060000189908060018154018082558091505090600182039060005260206000209060040201600090919290919091506000820151816000015560208201518160010160006101000a81548173ffffffffffffffffffffffffffffffffffffffff021916908373ffffffffffffffffffffffffffffffffffffffff1602179055506040820151816002015560608201518160030160006101000a81548160ff021916908315150217905550505050600760008b81526020019081526020016000206000878152602001908152602001600020600101600081548092919060010191905055506080604051908101604052808881526020018c73ffffffffffffffffffffffffffffffffffffffff16815260200160008152602001600115158152509850600760008b8152602001908152602001600020600087815260200190815260200160002060000189908060018154018082558091505090600182039060005260206000209060040201600090919290919091506000820151816000015560208201518160010160006101000a81548173ffffffffffffffffffffffffffffffffffffffff021916908373ffffffffffffffffffffffffffffffffffffffff1602179055506040820151816002015560608201518160030160006101000a81548160ff0219169083151502179055505050508560088b81548110151561130157fe5b90600052602060002001819055506001860160098b81548110151561132257fe5b90600052602060002001819055506114ba565b6080604051908101604052808681526020018c73ffffffffffffffffffffffffffffffffffffffff168152602001868152602001600115158152509850600760008b8152602001908152602001600020600087815260200190815260200160002060000189908060018154018082558091505090600182039060005260206000209060040201600090919290919091506000820151816000015560208201518160010160006101000a81548173ffffffffffffffffffffffffffffffffffffffff021916908373ffffffffffffffffffffffffffffffffffffffff1602179055506040820151816002015560608201518160030160006101000a81548160ff0219169083151502179055505050506001860360088b81548110151561145657fe5b90600052602060002001819055508560098b81548110151561147457fe5b9060005260206000200181905550600760008b81526020019081526020016000206000878152602001908152602001600020600101600081548092919060010191905055505b5b8580600101965050610d05565b5b50505050505050505050505050565b6008818154811015156114e757fe5b906000526020600020016000915090505481565b611503611e1a565b61150b611e1a565b61152285858584611825909392919063ffffffff16565b9150509392505050565b6115438284608001516118df90919063ffffffff16565b61155a8184608001516118df90919063ffffffff16565b505050565b6115768284608001516118df90919063ffffffff16565b61158d81846080015161190490919063ffffffff16565b505050565b600030600454604051602001808373ffffffffffffffffffffffffffffffffffffffff1673ffffffffffffffffffffffffffffffffffffffff166c01000000000000000000000000028152601401828152602001925050506040516020818303038152906040526040518082805190602001908083835b60208310151561162e5780518252602082019150602081019050602083039250611609565b6001836020036101000a038019825116818451168082178552505050505050905001915050604051809103902090506004548360600181815250508360056000836000191660001916815260200190815260200160002060006101000a81548173ffffffffffffffffffffffffffffffffffffffff021916908373ffffffffffffffffffffffffffffffffffffffff16021790555080600019167fb5e6e01e79f91267dc17b4e6314d5d4d03593d2ceee0fbb452b750bd70ea5af960405160405180910390a2600260009054906101000a900473ffffffffffffffffffffffffffffffffffffffff1673ffffffffffffffffffffffffffffffffffffffff16634000aea0858461173d87611952565b6040518463ffffffff167c01000000000000000000000000000000000000000000000000000000000281526004016117779392919061281a565b602060405180830381600087803b15801561179157600080fd5b505af11580156117a5573d6000803e3d6000fd5b505050506040513d601f19601f820116820180604052506117c991908101906123bb565b151561180a576040517f08c379a00000000000000000000000000000000000000000000000000000000081526004016118019061289d565b60405180910390fd5b60016004600082825401925050819055508090509392505050565b61182d611e1a565b61183d8560800151610100611a50565b50838560000190600019169081600019168152505082856020019073ffffffffffffffffffffffffffffffffffffffff16908173ffffffffffffffffffffffffffffffffffffffff16815250508185604001907bffffffffffffffffffffffffffffffffffffffffffffffffffffffff191690817bffffffffffffffffffffffffffffffffffffffffffffffffffffffff191681525050849050949350505050565b6118ec8260038351611aaa565b6118ff8183611c0890919063ffffffff16565b505050565b60008112151561191f5761191a82600083611aaa565b61194e565b61194d826001837fffffffffffffffffffffffffffffffffffffffffffffffffffffffffffffffff03611aaa565b5b5050565b6060600360009054906101000a900473ffffffffffffffffffffffffffffffffffffffff1673ffffffffffffffffffffffffffffffffffffffff16634042994690507c010000000000000000000000000000000000000000000000000000000002600080846000015185602001518660400151876060015160018960800151600001516040516024016119ec989796959493929190612795565b604051602081830303815290604052907bffffffffffffffffffffffffffffffffffffffffffffffffffffffff19166020820180517bffffffffffffffffffffffffffffffffffffffffffffffffffffffff83818316178352505050509050919050565b611a58611f96565b6000602083811515611a6657fe5b06141515611a8357602082811515611a7a57fe5b06602003820191505b81836020018181525050604051808452600081528281016020016040525082905092915050565b601781111515611adc57611ad68160058460ff169060020a0260ff161784611c2a90919063ffffffff16565b50611c03565b60ff81111515611b2357611b06601860058460ff169060020a021784611c2a90919063ffffffff16565b50611b1d81600185611c4a9092919063ffffffff16565b50611c02565b61ffff81111515611b6b57611b4e601960058460ff169060020a021784611c2a90919063ffffffff16565b50611b6581600285611c4a9092919063ffffffff16565b50611c01565b63ffffffff81111515611bb557611b98601a60058460ff169060020a021784611c2a90919063ffffffff16565b50611baf81600485611c4a9092919063ffffffff16565b50611c00565b67ffffffffffffffff81111515611bff57611be6601b60058460ff169060020a021784611c2a90919063ffffffff16565b50611bfd81600885611c4a9092919063ffffffff16565b505b5b5b5b5b505050565b611c10611f96565b611c2283846000015151848551611c6c565b905092915050565b611c32611f96565b611c428384600001515184611d29565b905092915050565b611c52611f96565b611c63848560000151518585611d79565b90509392505050565b611c74611f96565b600080600085518511151515611c8957600080fd5b87602001518588011115611cb457611cb3886002611cad8b602001518b8a01611dda565b02611df6565b5b875180518860208301019450808988011115611cd05788870182525b60208801935050505b602085101515611cfe5781518352602083019250602082019150602085039450611cd9565b6001856020036101000a03905080198251168184511681811785525050879350505050949350505050565b611d31611f96565b836020015183101515611d5057611d4f846002866020015102611df6565b5b8351805160208583010184815381861415611d6c576001820183525b5050508390509392505050565b611d81611f96565b600085602001518584011115611da157611da086600287860102611df6565b5b6001836101000a0390508551838682010185831982511617815281518588011115611dcc5784870182525b505085915050949350505050565b600081831115611dec57829050611df0565b8190505b92915050565b606082600001519050611e098383611a50565b50611e148382611c08565b50505050565b60c06040519081016040528060008019168152602001600073ffffffffffffffffffffffffffffffffffffffff16815260200160007bffffffffffffffffffffffffffffffffffffffffffffffffffffffff1916815260200160008152602001611e82611fb0565b81525090565b828054600181600116156101000203166002900490600052602060002090601f016020900481019282601f10611ec957805160ff1916838001178555611ef7565b82800160010185558215611ef7579182015b82811115611ef6578251825591602001919060010190611edb565b5b509050611f049190611fca565b5090565b828054828255906000526020600020908101928215611f44579160200282015b82811115611f43578251825591602001919060010190611f28565b5b509050611f519190611fca565b5090565b60806040519081016040528060008152602001600073ffffffffffffffffffffffffffffffffffffffff168152602001600081526020016000151581525090565b604080519081016040528060608152602001600081525090565b604080519081016040528060608152602001600081525090565b611fec91905b80821115611fe8576000816000905550600101611fd0565b5090565b90565b6000611ffb8235612a26565b905092915050565b600082601f830112151561201657600080fd5b813561202961202482612925565b6128f8565b9150818183526020840193506020810190508385602084028201111561204e57600080fd5b60005b8381101561207e5781612064888261232c565b845260208401935060208301925050600181019050612051565b5050505092915050565b60006120948235612a46565b905092915050565b60006120a88251612a46565b905092915050565b60006120bc8235612a52565b905092915050565b600082601f83011215156120d757600080fd5b81356120ea6120e58261294d565b6128f8565b9150808252602083016020830185838301111561210657600080fd5b612111838284612a66565b50505092915050565b600082601f830112151561212d57600080fd5b813561214061213b82612979565b6128f8565b9150808252602083016020830185838301111561215c57600080fd5b612167838284612a66565b50505092915050565b600060a0828403121561218257600080fd5b61218c60a06128f8565b9050600082013567ffffffffffffffff8111156121a857600080fd5b6121b4848285016120c4565b600083015250602082013567ffffffffffffffff8111156121d457600080fd5b6121e0848285016120c4565b602083015250604082013567ffffffffffffffff81111561220057600080fd5b61220c848285016120c4565b604083015250606082013567ffffffffffffffff81111561222c57600080fd5b612238848285016120c4565b606083015250608082013567ffffffffffffffff81111561225857600080fd5b612264848285016120c4565b60808301525092915050565b60006080828403121561228257600080fd5b61228c60806128f8565b9050600082013567ffffffffffffffff8111156122a857600080fd5b6122b4848285016120c4565b60008301525060206122c88482850161232c565b602083015250604082013567ffffffffffffffff8111156122e857600080fd5b6122f484828501612170565b604083015250606082013567ffffffffffffffff81111561231457600080fd5b61232084828501612003565b60608301525092915050565b60006123388235612a5c565b905092915050565b6000806000806080858703121561235657600080fd5b600061236487828801611fef565b9450506020612375878288016120b0565b93505060406123868782880161232c565b925050606085013567ffffffffffffffff8111156123a357600080fd5b6123af8782880161211a565b91505092959194509250565b6000602082840312156123cd57600080fd5b60006123db8482850161209c565b91505092915050565b600080604083850312156123f757600080fd5b6000612405858286016120b0565b92505060206124168582860161232c565b9150509250929050565b60006020828403121561243257600080fd5b600082013567ffffffffffffffff81111561244c57600080fd5b61245884828501612270565b91505092915050565b60006020828403121561247357600080fd5b60006124818482850161232c565b91505092915050565b600080600080608085870312156124a057600080fd5b60006124ae8782880161232c565b94505060206124bf8782880161232c565b93505060406124d087828801611fef565b92505060606124e18782880161232c565b91505092959194509250565b6000806000806080858703121561250357600080fd5b60006125118782880161232c565b94505060206125228782880161232c565b935050604061253387828801612088565b92505060606125448782880161232c565b91505092959194509250565b612559816129c6565b82525050565b612568816129e6565b82525050565b612577816129f0565b82525050565b6000612588826129b0565b80845261259c816020860160208601612a75565b6125a581612aa8565b602085010191505092915050565b60006125be826129a5565b8084526125d2816020860160208601612a75565b6125db81612aa8565b602085010191505092915050565b60006125f4826129bb565b808452612608816020860160208601612a75565b61261181612aa8565b602085010191505092915050565b6000602382527f756e61626c6520746f207472616e73666572416e6443616c6c20746f206f726160208301527f636c6500000000000000000000000000000000000000000000000000000000006040830152606082019050919050565b6000602882527f536f75726365206d75737420626520746865206f7261636c65206f662074686560208301527f20726571756573740000000000000000000000000000000000000000000000006040830152606082019050919050565b600060a08301600083015184820360008601526126f682826125e9565b9150506020830151848203602086015261271082826125e9565b9150506040830151848203604086015261272a82826125e9565b9150506060830151848203606086015261274482826125e9565b9150506080830151848203608086015261275e82826125e9565b9150508091505092915050565b61277481612a1c565b82525050565b600060208201905061278f6000830184612550565b92915050565b6000610100820190506127ab600083018b612550565b6127b8602083018a61276b565b6127c5604083018961255f565b6127d26060830188612550565b6127df608083018761256e565b6127ec60a083018661276b565b6127f960c083018561276b565b81810360e083015261280b81846125b3565b90509998505050505050505050565b600060608201905061282f6000830186612550565b61283c602083018561276b565b818103604083015261284e818461257d565b9050949350505050565b6000606082019050818103600083015261287281866125e9565b9050612881602083018561276b565b818103604083015261289381846126d9565b9050949350505050565b600060208201905081810360008301526128b68161261f565b9050919050565b600060208201905081810360008301526128d68161267c565b9050919050565b60006020820190506128f2600083018461276b565b92915050565b6000604051905081810181811067ffffffffffffffff8211171561291b57600080fd5b8060405250919050565b600067ffffffffffffffff82111561293c57600080fd5b602082029050602081019050919050565b600067ffffffffffffffff82111561296457600080fd5b601f19601f8301169050602081019050919050565b600067ffffffffffffffff82111561299057600080fd5b601f19601f8301169050602081019050919050565b600081519050919050565b600081519050919050565b600081519050919050565b600073ffffffffffffffffffffffffffffffffffffffff82169050919050565b6000819050919050565b60007fffffffff0000000000000000000000000000000000000000000000000000000082169050919050565b6000819050919050565b600073ffffffffffffffffffffffffffffffffffffffff82169050919050565b60008115159050919050565b6000819050919050565b6000819050919050565b82818337600083830152505050565b60005b83811015612a93578082015181840152602081019050612a78565b83811115612aa2576000848401525b50505050565b6000601f19601f83011690509190505600a265627a7a72305820e6cc76c0c8fe555cac50c86f4740a7ccf1fc150c1dce8d74e5fd0628aac1ea566c6578706572696d656e74616cf50037a265627a7a7230582019cc0cc3dbe4884121649f6a18388e9183f235c574759a100a33e4d44ee049976c6578706572696d656e74616cf50037",
  "source": "pragma experimental ABIEncoderV2;\n\nimport \"./PredictEvent.sol\";\nimport \"./Shared.sol\";\n\ncontract EventFactory {\n    struct ContractInfo{\n        address add;\n        uint timestamp;\n    }\n    uint256[] tmp;\n    \n    ContractInfo[] public allContracts;\n    function createContract ( string _name, uint _marketResolutionTimestamp, string _apiPath , string _httpPostOrGet ,\n     string _getData , string _postData , string _jsonRegexString ) public {\n\n        Shared.ApiRequest memory _request = Shared.ApiRequest({\n            apiPath : _apiPath,\n            httpPostOrGet : _httpPostOrGet,\n            getData : _getData,\n            postData : _postData,\n            jsonRegexString : _jsonRegexString\n            });\n\n        if(tmp.length <2){\n            tmp.push(1);\n            tmp.push(2);\n        }\n        Shared.Market memory market = Shared.Market({\n            name : _name,\n            marketResolutionTimestamp : _marketResolutionTimestamp,\n            request : _request,\n            possibleOutcomes : tmp\n            });\n\n        PredictEvent newContract = new PredictEvent();\n        newContract.initialize(market);\n\n        allContracts.push(ContractInfo({add: newContract,timestamp:_marketResolutionTimestamp}));\n    } \n\n    function getAddressCount() public constant returns (uint) {\n        return allContracts.length;\n    }\n\n}",
  "sourcePath": "/home/asket/projects/hackathon/smart_contract/contracts/EventFactory.sol",
  "compiler": {
    "name": "solc",
    "version": "0.4.24+commit.e67f0147.Emscripten.clang"
  },
  "schemaVersion": "3.0.16",
  "updatedAt": "2019-10-28T21:26:28.351Z",
  "devdoc": {
    "methods": {}
  },
  "userdoc": {
    "methods": {}
  }
}